{
  "_format": "hh-sol-artifact-1",
  "contractName": "AssetNFT",
  "sourceName": "contracts/AssetNFT.sol",
  "abi": [
    {
      "inputs": [],
      "stateMutability": "nonpayable",
      "type": "constructor"
    },
    {
      "anonymous": false,
      "inputs": [
        {
          "indexed": true,
          "internalType": "address",
          "name": "owner",
          "type": "address"
        },
        {
          "indexed": true,
          "internalType": "address",
          "name": "approved",
          "type": "address"
        },
        {
          "indexed": true,
          "internalType": "uint256",
          "name": "tokenId",
          "type": "uint256"
        }
      ],
      "name": "Approval",
      "type": "event"
    },
    {
      "anonymous": false,
      "inputs": [
        {
          "indexed": true,
          "internalType": "address",
          "name": "owner",
          "type": "address"
        },
        {
          "indexed": true,
          "internalType": "address",
          "name": "operator",
          "type": "address"
        },
        {
          "indexed": false,
          "internalType": "bool",
          "name": "approved",
          "type": "bool"
        }
      ],
      "name": "ApprovalForAll",
      "type": "event"
    },
    {
      "anonymous": false,
      "inputs": [
        {
          "indexed": true,
          "internalType": "address",
          "name": "previousOwner",
          "type": "address"
        },
        {
          "indexed": true,
          "internalType": "address",
          "name": "newOwner",
          "type": "address"
        }
      ],
      "name": "OwnershipTransferred",
      "type": "event"
    },
    {
      "anonymous": false,
      "inputs": [
        {
          "indexed": true,
          "internalType": "address",
          "name": "from",
          "type": "address"
        },
        {
          "indexed": true,
          "internalType": "address",
          "name": "to",
          "type": "address"
        },
        {
          "indexed": true,
          "internalType": "uint256",
          "name": "tokenId",
          "type": "uint256"
        }
      ],
      "name": "Transfer",
      "type": "event"
    },
    {
      "inputs": [
        {
          "internalType": "address",
          "name": "to",
          "type": "address"
        },
        {
          "internalType": "uint256",
          "name": "tokenId",
          "type": "uint256"
        }
      ],
      "name": "approve",
      "outputs": [],
      "stateMutability": "nonpayable",
      "type": "function"
    },
    {
      "inputs": [
        {
          "internalType": "address",
          "name": "owner",
          "type": "address"
        }
      ],
      "name": "balanceOf",
      "outputs": [
        {
          "internalType": "uint256",
          "name": "",
          "type": "uint256"
        }
      ],
      "stateMutability": "view",
      "type": "function"
    },
    {
      "inputs": [
        {
          "internalType": "uint256",
          "name": "tokenId",
          "type": "uint256"
        }
      ],
      "name": "getApproved",
      "outputs": [
        {
          "internalType": "address",
          "name": "",
          "type": "address"
        }
      ],
      "stateMutability": "view",
      "type": "function"
    },
    {
      "inputs": [
        {
          "internalType": "address",
          "name": "owner",
          "type": "address"
        },
        {
          "internalType": "address",
          "name": "operator",
          "type": "address"
        }
      ],
      "name": "isApprovedForAll",
      "outputs": [
        {
          "internalType": "bool",
          "name": "",
          "type": "bool"
        }
      ],
      "stateMutability": "view",
      "type": "function"
    },
    {
      "inputs": [
        {
          "internalType": "address",
          "name": "recipient",
          "type": "address"
        },
        {
          "internalType": "string",
          "name": "currTokenURI",
          "type": "string"
        }
      ],
      "name": "mintNFT",
      "outputs": [
        {
          "internalType": "uint256",
          "name": "",
          "type": "uint256"
        }
      ],
      "stateMutability": "nonpayable",
      "type": "function"
    },
    {
      "inputs": [],
      "name": "name",
      "outputs": [
        {
          "internalType": "string",
          "name": "",
          "type": "string"
        }
      ],
      "stateMutability": "view",
      "type": "function"
    },
    {
      "inputs": [],
      "name": "owner",
      "outputs": [
        {
          "internalType": "address",
          "name": "",
          "type": "address"
        }
      ],
      "stateMutability": "view",
      "type": "function"
    },
    {
      "inputs": [
        {
          "internalType": "uint256",
          "name": "tokenId",
          "type": "uint256"
        }
      ],
      "name": "ownerOf",
      "outputs": [
        {
          "internalType": "address",
          "name": "",
          "type": "address"
        }
      ],
      "stateMutability": "view",
      "type": "function"
    },
    {
      "inputs": [],
      "name": "renounceOwnership",
      "outputs": [],
      "stateMutability": "nonpayable",
      "type": "function"
    },
    {
      "inputs": [
        {
          "internalType": "address",
          "name": "to",
          "type": "address"
        },
        {
          "internalType": "string",
          "name": "uri",
          "type": "string"
        }
      ],
      "name": "safeMint",
      "outputs": [],
      "stateMutability": "nonpayable",
      "type": "function"
    },
    {
      "inputs": [
        {
          "internalType": "address",
          "name": "from",
          "type": "address"
        },
        {
          "internalType": "address",
          "name": "to",
          "type": "address"
        },
        {
          "internalType": "uint256",
          "name": "tokenId",
          "type": "uint256"
        }
      ],
      "name": "safeTransferFrom",
      "outputs": [],
      "stateMutability": "nonpayable",
      "type": "function"
    },
    {
      "inputs": [
        {
          "internalType": "address",
          "name": "from",
          "type": "address"
        },
        {
          "internalType": "address",
          "name": "to",
          "type": "address"
        },
        {
          "internalType": "uint256",
          "name": "tokenId",
          "type": "uint256"
        },
        {
          "internalType": "bytes",
          "name": "_data",
          "type": "bytes"
        }
      ],
      "name": "safeTransferFrom",
      "outputs": [],
      "stateMutability": "nonpayable",
      "type": "function"
    },
    {
      "inputs": [
        {
          "internalType": "address",
          "name": "operator",
          "type": "address"
        },
        {
          "internalType": "bool",
          "name": "approved",
          "type": "bool"
        }
      ],
      "name": "setApprovalForAll",
      "outputs": [],
      "stateMutability": "nonpayable",
      "type": "function"
    },
    {
      "inputs": [
        {
          "internalType": "bytes4",
          "name": "interfaceId",
          "type": "bytes4"
        }
      ],
      "name": "supportsInterface",
      "outputs": [
        {
          "internalType": "bool",
          "name": "",
          "type": "bool"
        }
      ],
      "stateMutability": "view",
      "type": "function"
    },
    {
      "inputs": [],
      "name": "symbol",
      "outputs": [
        {
          "internalType": "string",
          "name": "",
          "type": "string"
        }
      ],
      "stateMutability": "view",
      "type": "function"
    },
    {
      "inputs": [
        {
          "internalType": "uint256",
          "name": "index",
          "type": "uint256"
        }
      ],
      "name": "tokenByIndex",
      "outputs": [
        {
          "internalType": "uint256",
          "name": "",
          "type": "uint256"
        }
      ],
      "stateMutability": "view",
      "type": "function"
    },
    {
      "inputs": [
        {
          "internalType": "address",
          "name": "owner",
          "type": "address"
        },
        {
          "internalType": "uint256",
          "name": "index",
          "type": "uint256"
        }
      ],
      "name": "tokenOfOwnerByIndex",
      "outputs": [
        {
          "internalType": "uint256",
          "name": "",
          "type": "uint256"
        }
      ],
      "stateMutability": "view",
      "type": "function"
    },
    {
      "inputs": [
        {
          "internalType": "uint256",
          "name": "tokenId",
          "type": "uint256"
        }
      ],
      "name": "tokenURI",
      "outputs": [
        {
          "internalType": "string",
          "name": "",
          "type": "string"
        }
      ],
      "stateMutability": "view",
      "type": "function"
    },
    {
      "inputs": [],
      "name": "totalSupply",
      "outputs": [
        {
          "internalType": "uint256",
          "name": "",
          "type": "uint256"
        }
      ],
      "stateMutability": "view",
      "type": "function"
    },
    {
      "inputs": [
        {
          "internalType": "address",
          "name": "from",
          "type": "address"
        },
        {
          "internalType": "address",
          "name": "to",
          "type": "address"
        },
        {
          "internalType": "uint256",
          "name": "tokenId",
          "type": "uint256"
        }
      ],
      "name": "transferFrom",
      "outputs": [],
      "stateMutability": "nonpayable",
      "type": "function"
    },
    {
      "inputs": [
        {
          "internalType": "address",
          "name": "newOwner",
          "type": "address"
        }
      ],
      "name": "transferOwnership",
      "outputs": [],
      "stateMutability": "nonpayable",
      "type": "function"
    }
  ],
  "bytecode": "0x60806040523480156200001157600080fd5b506040518060400160405280600881526020017f41737365744e46540000000000000000000000000000000000000000000000008152506040518060400160405280600381526020017f41534e0000000000000000000000000000000000000000000000000000000000815250816000908051906020019062000096929190620001a6565b508060019080519060200190620000af929190620001a6565b505050620000d2620000c6620000d860201b60201c565b620000e060201b60201c565b620002bb565b600033905090565b6000600b60009054906101000a900473ffffffffffffffffffffffffffffffffffffffff16905081600b60006101000a81548173ffffffffffffffffffffffffffffffffffffffff021916908373ffffffffffffffffffffffffffffffffffffffff1602179055508173ffffffffffffffffffffffffffffffffffffffff168173ffffffffffffffffffffffffffffffffffffffff167f8be0079c531659141344cd1fd0a4f28419497f9722a3daafe3b4186f6b6457e060405160405180910390a35050565b828054620001b49062000256565b90600052602060002090601f016020900481019282620001d8576000855562000224565b82601f10620001f357805160ff191683800117855562000224565b8280016001018555821562000224579182015b828111156200022357825182559160200191906001019062000206565b5b50905062000233919062000237565b5090565b5b808211156200025257600081600090555060010162000238565b5090565b600060028204905060018216806200026f57607f821691505b602082108114156200028657620002856200028c565b5b50919050565b7f4e487b7100000000000000000000000000000000000000000000000000000000600052602260045260246000fd5b61390080620002cb6000396000f3fe608060405234801561001057600080fd5b50600436106101375760003560e01c806370a08231116100b8578063b88d4fde1161007c578063b88d4fde1461034e578063c87b56dd1461036a578063d204c45e1461039a578063e985e9c5146103b6578063eacabe14146103e6578063f2fde38b1461041657610137565b806370a08231146102bc578063715018a6146102ec5780638da5cb5b146102f657806395d89b4114610314578063a22cb4651461033257610137565b806323b872dd116100ff57806323b872dd146101f45780632f745c591461021057806342842e0e146102405780634f6ccce71461025c5780636352211e1461028c57610137565b806301ffc9a71461013c57806306fdde031461016c578063081812fc1461018a578063095ea7b3146101ba57806318160ddd146101d6575b600080fd5b6101566004803603810190610151919061278b565b610432565b6040516101639190612c1d565b60405180910390f35b610174610444565b6040516101819190612c38565b60405180910390f35b6101a4600480360381019061019f91906127dd565b6104d6565b6040516101b19190612bb6565b60405180910390f35b6101d460048036038101906101cf919061274f565b61055b565b005b6101de610673565b6040516101eb9190612eda565b60405180910390f35b61020e600480360381019061020991906125f5565b610680565b005b61022a6004803603810190610225919061274f565b6106e0565b6040516102379190612eda565b60405180910390f35b61025a600480360381019061025591906125f5565b610785565b005b610276600480360381019061027191906127dd565b6107a5565b6040516102839190612eda565b60405180910390f35b6102a660048036038101906102a191906127dd565b61083c565b6040516102b39190612bb6565b60405180910390f35b6102d660048036038101906102d19190612590565b6108ee565b6040516102e39190612eda565b60405180910390f35b6102f46109a6565b005b6102fe610a2e565b60405161030b9190612bb6565b60405180910390f35b61031c610a58565b6040516103299190612c38565b60405180910390f35b61034c600480360381019061034791906126bf565b610aea565b005b61036860048036038101906103639190612644565b610b00565b005b610384600480360381019061037f91906127dd565b610b62565b6040516103919190612c38565b60405180910390f35b6103b460048036038101906103af91906126fb565b610b74565b005b6103d060048036038101906103cb91906125b9565b610c21565b6040516103dd9190612c1d565b60405180910390f35b61040060048036038101906103fb91906126fb565b610cb5565b60405161040d9190612eda565b60405180910390f35b610430600480360381019061042b9190612590565b610ced565b005b600061043d82610de5565b9050919050565b60606000805461045390613130565b80601f016020809104026020016040519081016040528092919081815260200182805461047f90613130565b80156104cc5780601f106104a1576101008083540402835291602001916104cc565b820191906000526020600020905b8154815290600101906020018083116104af57829003601f168201915b5050505050905090565b60006104e182610e5f565b610520576040517f08c379a000000000000000000000000000000000000000000000000000000000815260040161051790612e1a565b60405180910390fd5b6004600083815260200190815260200160002060009054906101000a900473ffffffffffffffffffffffffffffffffffffffff169050919050565b60006105668261083c565b90508073ffffffffffffffffffffffffffffffffffffffff168373ffffffffffffffffffffffffffffffffffffffff1614156105d7576040517f08c379a00000000000000000000000000000000000000000000000000000000081526004016105ce90612e7a565b60405180910390fd5b8073ffffffffffffffffffffffffffffffffffffffff166105f6610ecb565b73ffffffffffffffffffffffffffffffffffffffff16148061062557506106248161061f610ecb565b610c21565b5b610664576040517f08c379a000000000000000000000000000000000000000000000000000000000815260040161065b90612d5a565b60405180910390fd5b61066e8383610ed3565b505050565b6000600880549050905090565b61069161068b610ecb565b82610f8c565b6106d0576040517f08c379a00000000000000000000000000000000000000000000000000000000081526004016106c790612e9a565b60405180910390fd5b6106db83838361106a565b505050565b60006106eb836108ee565b821061072c576040517f08c379a000000000000000000000000000000000000000000000000000000000815260040161072390612c5a565b60405180910390fd5b600660008473ffffffffffffffffffffffffffffffffffffffff1673ffffffffffffffffffffffffffffffffffffffff168152602001908152602001600020600083815260200190815260200160002054905092915050565b6107a083838360405180602001604052806000815250610b00565b505050565b60006107af610673565b82106107f0576040517f08c379a00000000000000000000000000000000000000000000000000000000081526004016107e790612eba565b60405180910390fd5b6008828154811061082a577f4e487b7100000000000000000000000000000000000000000000000000000000600052603260045260246000fd5b90600052602060002001549050919050565b6000806002600084815260200190815260200160002060009054906101000a900473ffffffffffffffffffffffffffffffffffffffff169050600073ffffffffffffffffffffffffffffffffffffffff168173ffffffffffffffffffffffffffffffffffffffff1614156108e5576040517f08c379a00000000000000000000000000000000000000000000000000000000081526004016108dc90612d9a565b60405180910390fd5b80915050919050565b60008073ffffffffffffffffffffffffffffffffffffffff168273ffffffffffffffffffffffffffffffffffffffff16141561095f576040517f08c379a000000000000000000000000000000000000000000000000000000000815260040161095690612d7a565b60405180910390fd5b600360008373ffffffffffffffffffffffffffffffffffffffff1673ffffffffffffffffffffffffffffffffffffffff168152602001908152602001600020549050919050565b6109ae610ecb565b73ffffffffffffffffffffffffffffffffffffffff166109cc610a2e565b73ffffffffffffffffffffffffffffffffffffffff1614610a22576040517f08c379a0000000000000000000000000000000000000000000000000000000008152600401610a1990612e3a565b60405180910390fd5b610a2c60006112d1565b565b6000600b60009054906101000a900473ffffffffffffffffffffffffffffffffffffffff16905090565b606060018054610a6790613130565b80601f0160208091040260200160405190810160405280929190818152602001828054610a9390613130565b8015610ae05780601f10610ab557610100808354040283529160200191610ae0565b820191906000526020600020905b815481529060010190602001808311610ac357829003601f168201915b5050505050905090565b610afc610af5610ecb565b8383611397565b5050565b610b11610b0b610ecb565b83610f8c565b610b50576040517f08c379a0000000000000000000000000000000000000000000000000000000008152600401610b4790612e9a565b60405180910390fd5b610b5c84848484611504565b50505050565b6060610b6d82611560565b9050919050565b610b7c610ecb565b73ffffffffffffffffffffffffffffffffffffffff16610b9a610a2e565b73ffffffffffffffffffffffffffffffffffffffff1614610bf0576040517f08c379a0000000000000000000000000000000000000000000000000000000008152600401610be790612e3a565b60405180910390fd5b6000610bfc600c6116b2565b9050610c08600c6116c0565b610c1283826116d6565b610c1c81836116f4565b505050565b6000600560008473ffffffffffffffffffffffffffffffffffffffff1673ffffffffffffffffffffffffffffffffffffffff16815260200190815260200160002060008373ffffffffffffffffffffffffffffffffffffffff1673ffffffffffffffffffffffffffffffffffffffff16815260200190815260200160002060009054906101000a900460ff16905092915050565b6000610cc1600c6116c0565b6000610ccd600c6116b2565b9050610cd98482611768565b610ce381846116f4565b8091505092915050565b610cf5610ecb565b73ffffffffffffffffffffffffffffffffffffffff16610d13610a2e565b73ffffffffffffffffffffffffffffffffffffffff1614610d69576040517f08c379a0000000000000000000000000000000000000000000000000000000008152600401610d6090612e3a565b60405180910390fd5b600073ffffffffffffffffffffffffffffffffffffffff168173ffffffffffffffffffffffffffffffffffffffff161415610dd9576040517f08c379a0000000000000000000000000000000000000000000000000000000008152600401610dd090612c9a565b60405180910390fd5b610de2816112d1565b50565b60007f780e9d63000000000000000000000000000000000000000000000000000000007bffffffffffffffffffffffffffffffffffffffffffffffffffffffff1916827bffffffffffffffffffffffffffffffffffffffffffffffffffffffff19161480610e585750610e5782611942565b5b9050919050565b60008073ffffffffffffffffffffffffffffffffffffffff166002600084815260200190815260200160002060009054906101000a900473ffffffffffffffffffffffffffffffffffffffff1673ffffffffffffffffffffffffffffffffffffffff1614159050919050565b600033905090565b816004600083815260200190815260200160002060006101000a81548173ffffffffffffffffffffffffffffffffffffffff021916908373ffffffffffffffffffffffffffffffffffffffff160217905550808273ffffffffffffffffffffffffffffffffffffffff16610f468361083c565b73ffffffffffffffffffffffffffffffffffffffff167f8c5be1e5ebec7d5bd14f71427d1e84f3dd0314c0f7b2291e5b200ac8c7c3b92560405160405180910390a45050565b6000610f9782610e5f565b610fd6576040517f08c379a0000000000000000000000000000000000000000000000000000000008152600401610fcd90612d3a565b60405180910390fd5b6000610fe18361083c565b90508073ffffffffffffffffffffffffffffffffffffffff168473ffffffffffffffffffffffffffffffffffffffff16148061102357506110228185610c21565b5b8061106157508373ffffffffffffffffffffffffffffffffffffffff16611049846104d6565b73ffffffffffffffffffffffffffffffffffffffff16145b91505092915050565b8273ffffffffffffffffffffffffffffffffffffffff1661108a8261083c565b73ffffffffffffffffffffffffffffffffffffffff16146110e0576040517f08c379a00000000000000000000000000000000000000000000000000000000081526004016110d790612cba565b60405180910390fd5b600073ffffffffffffffffffffffffffffffffffffffff168273ffffffffffffffffffffffffffffffffffffffff161415611150576040517f08c379a000000000000000000000000000000000000000000000000000000000815260040161114790612cfa565b60405180910390fd5b61115b838383611a24565b611166600082610ed3565b6001600360008573ffffffffffffffffffffffffffffffffffffffff1673ffffffffffffffffffffffffffffffffffffffff16815260200190815260200160002060008282546111b69190613046565b925050819055506001600360008473ffffffffffffffffffffffffffffffffffffffff1673ffffffffffffffffffffffffffffffffffffffff168152602001908152602001600020600082825461120d9190612fbf565b92505081905550816002600083815260200190815260200160002060006101000a81548173ffffffffffffffffffffffffffffffffffffffff021916908373ffffffffffffffffffffffffffffffffffffffff160217905550808273ffffffffffffffffffffffffffffffffffffffff168473ffffffffffffffffffffffffffffffffffffffff167fddf252ad1be2c89b69c2b068fc378daa952ba7f163c4a11628f55a4df523b3ef60405160405180910390a46112cc838383611a34565b505050565b6000600b60009054906101000a900473ffffffffffffffffffffffffffffffffffffffff16905081600b60006101000a81548173ffffffffffffffffffffffffffffffffffffffff021916908373ffffffffffffffffffffffffffffffffffffffff1602179055508173ffffffffffffffffffffffffffffffffffffffff168173ffffffffffffffffffffffffffffffffffffffff167f8be0079c531659141344cd1fd0a4f28419497f9722a3daafe3b4186f6b6457e060405160405180910390a35050565b8173ffffffffffffffffffffffffffffffffffffffff168373ffffffffffffffffffffffffffffffffffffffff161415611406576040517f08c379a00000000000000000000000000000000000000000000000000000000081526004016113fd90612d1a565b60405180910390fd5b80600560008573ffffffffffffffffffffffffffffffffffffffff1673ffffffffffffffffffffffffffffffffffffffff16815260200190815260200160002060008473ffffffffffffffffffffffffffffffffffffffff1673ffffffffffffffffffffffffffffffffffffffff16815260200190815260200160002060006101000a81548160ff0219169083151502179055508173ffffffffffffffffffffffffffffffffffffffff168373ffffffffffffffffffffffffffffffffffffffff167f17307eab39ab6107e8899845ad3d59bd9653f200f220920489ca2b5937696c31836040516114f79190612c1d565b60405180910390a3505050565b61150f84848461106a565b61151b84848484611a39565b61155a576040517f08c379a000000000000000000000000000000000000000000000000000000000815260040161155190612c7a565b60405180910390fd5b50505050565b606061156b82610e5f565b6115aa576040517f08c379a00000000000000000000000000000000000000000000000000000000081526004016115a190612dfa565b60405180910390fd5b6000600a600084815260200190815260200160002080546115ca90613130565b80601f01602080910402602001604051908101604052809291908181526020018280546115f690613130565b80156116435780601f1061161857610100808354040283529160200191611643565b820191906000526020600020905b81548152906001019060200180831161162657829003601f168201915b505050505090506000611654611bd0565b905060008151141561166a5781925050506116ad565b60008251111561169f578082604051602001611687929190612b92565b604051602081830303815290604052925050506116ad565b6116a884611be7565b925050505b919050565b600081600001549050919050565b6001816000016000828254019250508190555050565b6116f0828260405180602001604052806000815250611c8e565b5050565b6116fd82610e5f565b61173c576040517f08c379a000000000000000000000000000000000000000000000000000000000815260040161173390612dba565b60405180910390fd5b80600a600084815260200190815260200160002090805190602001906117639291906123b4565b505050565b600073ffffffffffffffffffffffffffffffffffffffff168273ffffffffffffffffffffffffffffffffffffffff1614156117d8576040517f08c379a00000000000000000000000000000000000000000000000000000000081526004016117cf90612dda565b60405180910390fd5b6117e181610e5f565b15611821576040517f08c379a000000000000000000000000000000000000000000000000000000000815260040161181890612cda565b60405180910390fd5b61182d60008383611a24565b6001600360008473ffffffffffffffffffffffffffffffffffffffff1673ffffffffffffffffffffffffffffffffffffffff168152602001908152602001600020600082825461187d9190612fbf565b92505081905550816002600083815260200190815260200160002060006101000a81548173ffffffffffffffffffffffffffffffffffffffff021916908373ffffffffffffffffffffffffffffffffffffffff160217905550808273ffffffffffffffffffffffffffffffffffffffff16600073ffffffffffffffffffffffffffffffffffffffff167fddf252ad1be2c89b69c2b068fc378daa952ba7f163c4a11628f55a4df523b3ef60405160405180910390a461193e60008383611a34565b5050565b60007f80ac58cd000000000000000000000000000000000000000000000000000000007bffffffffffffffffffffffffffffffffffffffffffffffffffffffff1916827bffffffffffffffffffffffffffffffffffffffffffffffffffffffff19161480611a0d57507f5b5e139f000000000000000000000000000000000000000000000000000000007bffffffffffffffffffffffffffffffffffffffffffffffffffffffff1916827bffffffffffffffffffffffffffffffffffffffffffffffffffffffff1916145b80611a1d5750611a1c82611ce9565b5b9050919050565b611a2f838383611d53565b505050565b505050565b6000611a5a8473ffffffffffffffffffffffffffffffffffffffff16611e67565b15611bc3578373ffffffffffffffffffffffffffffffffffffffff1663150b7a02611a83610ecb565b8786866040518563ffffffff1660e01b8152600401611aa59493929190612bd1565b602060405180830381600087803b158015611abf57600080fd5b505af1925050508015611af057506040513d601f19601f82011682018060405250810190611aed91906127b4565b60015b611b73573d8060008114611b20576040519150601f19603f3d011682016040523d82523d6000602084013e611b25565b606091505b50600081511415611b6b576040517f08c379a0000000000000000000000000000000000000000000000000000000008152600401611b6290612c7a565b60405180910390fd5b805181602001fd5b63150b7a0260e01b7bffffffffffffffffffffffffffffffffffffffffffffffffffffffff1916817bffffffffffffffffffffffffffffffffffffffffffffffffffffffff191614915050611bc8565b600190505b949350505050565b606060405180602001604052806000815250905090565b6060611bf282610e5f565b611c31576040517f08c379a0000000000000000000000000000000000000000000000000000000008152600401611c2890612e5a565b60405180910390fd5b6000611c3b611bd0565b90506000815111611c5b5760405180602001604052806000815250611c86565b80611c6584611e8a565b604051602001611c76929190612b92565b6040516020818303038152906040525b915050919050565b611c988383611768565b611ca56000848484611a39565b611ce4576040517f08c379a0000000000000000000000000000000000000000000000000000000008152600401611cdb90612c7a565b60405180910390fd5b505050565b60007f01ffc9a7000000000000000000000000000000000000000000000000000000007bffffffffffffffffffffffffffffffffffffffffffffffffffffffff1916827bffffffffffffffffffffffffffffffffffffffffffffffffffffffff1916149050919050565b611d5e838383612037565b600073ffffffffffffffffffffffffffffffffffffffff168373ffffffffffffffffffffffffffffffffffffffff161415611da157611d9c8161203c565b611de0565b8173ffffffffffffffffffffffffffffffffffffffff168373ffffffffffffffffffffffffffffffffffffffff1614611ddf57611dde8382612085565b5b5b600073ffffffffffffffffffffffffffffffffffffffff168273ffffffffffffffffffffffffffffffffffffffff161415611e2357611e1e816121f2565b611e62565b8273ffffffffffffffffffffffffffffffffffffffff168273ffffffffffffffffffffffffffffffffffffffff1614611e6157611e608282612335565b5b5b505050565b6000808273ffffffffffffffffffffffffffffffffffffffff163b119050919050565b60606000821415611ed2576040518060400160405280600181526020017f30000000000000000000000000000000000000000000000000000000000000008152509050612032565b600082905060005b60008214611f04578080611eed90613193565b915050600a82611efd9190613015565b9150611eda565b60008167ffffffffffffffff811115611f46577f4e487b7100000000000000000000000000000000000000000000000000000000600052604160045260246000fd5b6040519080825280601f01601f191660200182016040528015611f785781602001600182028036833780820191505090505b5090505b6000851461202b57600182611f919190613046565b9150600a85611fa091906131dc565b6030611fac9190612fbf565b60f81b818381518110611fe8577f4e487b7100000000000000000000000000000000000000000000000000000000600052603260045260246000fd5b60200101907effffffffffffffffffffffffffffffffffffffffffffffffffffffffffffff1916908160001a905350600a856120249190613015565b9450611f7c565b8093505050505b919050565b505050565b6008805490506009600083815260200190815260200160002081905550600881908060018154018082558091505060019003906000526020600020016000909190919091505550565b60006001612092846108ee565b61209c9190613046565b9050600060076000848152602001908152602001600020549050818114612181576000600660008673ffffffffffffffffffffffffffffffffffffffff1673ffffffffffffffffffffffffffffffffffffffff168152602001908152602001600020600084815260200190815260200160002054905080600660008773ffffffffffffffffffffffffffffffffffffffff1673ffffffffffffffffffffffffffffffffffffffff168152602001908152602001600020600084815260200190815260200160002081905550816007600083815260200190815260200160002081905550505b6007600084815260200190815260200160002060009055600660008573ffffffffffffffffffffffffffffffffffffffff1673ffffffffffffffffffffffffffffffffffffffff16815260200190815260200160002060008381526020019081526020016000206000905550505050565b600060016008805490506122069190613046565b905060006009600084815260200190815260200160002054905060006008838154811061225c577f4e487b7100000000000000000000000000000000000000000000000000000000600052603260045260246000fd5b9060005260206000200154905080600883815481106122a4577f4e487b7100000000000000000000000000000000000000000000000000000000600052603260045260246000fd5b906000526020600020018190555081600960008381526020019081526020016000208190555060096000858152602001908152602001600020600090556008805480612319577f4e487b7100000000000000000000000000000000000000000000000000000000600052603160045260246000fd5b6001900381819060005260206000200160009055905550505050565b6000612340836108ee565b905081600660008573ffffffffffffffffffffffffffffffffffffffff1673ffffffffffffffffffffffffffffffffffffffff168152602001908152602001600020600083815260200190815260200160002081905550806007600084815260200190815260200160002081905550505050565b8280546123c090613130565b90600052602060002090601f0160209004810192826123e25760008555612429565b82601f106123fb57805160ff1916838001178555612429565b82800160010185558215612429579182015b8281111561242857825182559160200191906001019061240d565b5b509050612436919061243a565b5090565b5b8082111561245357600081600090555060010161243b565b5090565b600061246a61246584612f1a565b612ef5565b90508281526020810184848401111561248257600080fd5b61248d8482856130ee565b509392505050565b60006124a86124a384612f4b565b612ef5565b9050828152602081018484840111156124c057600080fd5b6124cb8482856130ee565b509392505050565b6000813590506124e28161386e565b92915050565b6000813590506124f781613885565b92915050565b60008135905061250c8161389c565b92915050565b6000815190506125218161389c565b92915050565b600082601f83011261253857600080fd5b8135612548848260208601612457565b91505092915050565b600082601f83011261256257600080fd5b8135612572848260208601612495565b91505092915050565b60008135905061258a816138b3565b92915050565b6000602082840312156125a257600080fd5b60006125b0848285016124d3565b91505092915050565b600080604083850312156125cc57600080fd5b60006125da858286016124d3565b92505060206125eb858286016124d3565b9150509250929050565b60008060006060848603121561260a57600080fd5b6000612618868287016124d3565b9350506020612629868287016124d3565b925050604061263a8682870161257b565b9150509250925092565b6000806000806080858703121561265a57600080fd5b6000612668878288016124d3565b9450506020612679878288016124d3565b935050604061268a8782880161257b565b925050606085013567ffffffffffffffff8111156126a757600080fd5b6126b387828801612527565b91505092959194509250565b600080604083850312156126d257600080fd5b60006126e0858286016124d3565b92505060206126f1858286016124e8565b9150509250929050565b6000806040838503121561270e57600080fd5b600061271c858286016124d3565b925050602083013567ffffffffffffffff81111561273957600080fd5b61274585828601612551565b9150509250929050565b6000806040838503121561276257600080fd5b6000612770858286016124d3565b92505060206127818582860161257b565b9150509250929050565b60006020828403121561279d57600080fd5b60006127ab848285016124fd565b91505092915050565b6000602082840312156127c657600080fd5b60006127d484828501612512565b91505092915050565b6000602082840312156127ef57600080fd5b60006127fd8482850161257b565b91505092915050565b61280f8161307a565b82525050565b61281e8161308c565b82525050565b600061282f82612f7c565b6128398185612f92565b93506128498185602086016130fd565b612852816132c9565b840191505092915050565b600061286882612f87565b6128728185612fa3565b93506128828185602086016130fd565b61288b816132c9565b840191505092915050565b60006128a182612f87565b6128ab8185612fb4565b93506128bb8185602086016130fd565b80840191505092915050565b60006128d4602b83612fa3565b91506128df826132da565b604082019050919050565b60006128f7603283612fa3565b915061290282613329565b604082019050919050565b600061291a602683612fa3565b915061292582613378565b604082019050919050565b600061293d602583612fa3565b9150612948826133c7565b604082019050919050565b6000612960601c83612fa3565b915061296b82613416565b602082019050919050565b6000612983602483612fa3565b915061298e8261343f565b604082019050919050565b60006129a6601983612fa3565b91506129b18261348e565b602082019050919050565b60006129c9602c83612fa3565b91506129d4826134b7565b604082019050919050565b60006129ec603883612fa3565b91506129f782613506565b604082019050919050565b6000612a0f602a83612fa3565b9150612a1a82613555565b604082019050919050565b6000612a32602983612fa3565b9150612a3d826135a4565b604082019050919050565b6000612a55602e83612fa3565b9150612a60826135f3565b604082019050919050565b6000612a78602083612fa3565b9150612a8382613642565b602082019050919050565b6000612a9b603183612fa3565b9150612aa68261366b565b604082019050919050565b6000612abe602c83612fa3565b9150612ac9826136ba565b604082019050919050565b6000612ae1602083612fa3565b9150612aec82613709565b602082019050919050565b6000612b04602f83612fa3565b9150612b0f82613732565b604082019050919050565b6000612b27602183612fa3565b9150612b3282613781565b604082019050919050565b6000612b4a603183612fa3565b9150612b55826137d0565b604082019050919050565b6000612b6d602c83612fa3565b9150612b788261381f565b604082019050919050565b612b8c816130e4565b82525050565b6000612b9e8285612896565b9150612baa8284612896565b91508190509392505050565b6000602082019050612bcb6000830184612806565b92915050565b6000608082019050612be66000830187612806565b612bf36020830186612806565b612c006040830185612b83565b8181036060830152612c128184612824565b905095945050505050565b6000602082019050612c326000830184612815565b92915050565b60006020820190508181036000830152612c52818461285d565b905092915050565b60006020820190508181036000830152612c73816128c7565b9050919050565b60006020820190508181036000830152612c93816128ea565b9050919050565b60006020820190508181036000830152612cb38161290d565b9050919050565b60006020820190508181036000830152612cd381612930565b9050919050565b60006020820190508181036000830152612cf381612953565b9050919050565b60006020820190508181036000830152612d1381612976565b9050919050565b60006020820190508181036000830152612d3381612999565b9050919050565b60006020820190508181036000830152612d53816129bc565b9050919050565b60006020820190508181036000830152612d73816129df565b9050919050565b60006020820190508181036000830152612d9381612a02565b9050919050565b60006020820190508181036000830152612db381612a25565b9050919050565b60006020820190508181036000830152612dd381612a48565b9050919050565b60006020820190508181036000830152612df381612a6b565b9050919050565b60006020820190508181036000830152612e1381612a8e565b9050919050565b60006020820190508181036000830152612e3381612ab1565b9050919050565b60006020820190508181036000830152612e5381612ad4565b9050919050565b60006020820190508181036000830152612e7381612af7565b9050919050565b60006020820190508181036000830152612e9381612b1a565b9050919050565b60006020820190508181036000830152612eb381612b3d565b9050919050565b60006020820190508181036000830152612ed381612b60565b9050919050565b6000602082019050612eef6000830184612b83565b92915050565b6000612eff612f10565b9050612f0b8282613162565b919050565b6000604051905090565b600067ffffffffffffffff821115612f3557612f3461329a565b5b612f3e826132c9565b9050602081019050919050565b600067ffffffffffffffff821115612f6657612f6561329a565b5b612f6f826132c9565b9050602081019050919050565b600081519050919050565b600081519050919050565b600082825260208201905092915050565b600082825260208201905092915050565b600081905092915050565b6000612fca826130e4565b9150612fd5836130e4565b9250827fffffffffffffffffffffffffffffffffffffffffffffffffffffffffffffffff0382111561300a5761300961320d565b5b828201905092915050565b6000613020826130e4565b915061302b836130e4565b92508261303b5761303a61323c565b5b828204905092915050565b6000613051826130e4565b915061305c836130e4565b92508282101561306f5761306e61320d565b5b828203905092915050565b6000613085826130c4565b9050919050565b60008115159050919050565b60007fffffffff0000000000000000000000000000000000000000000000000000000082169050919050565b600073ffffffffffffffffffffffffffffffffffffffff82169050919050565b6000819050919050565b82818337600083830152505050565b60005b8381101561311b578082015181840152602081019050613100565b8381111561312a576000848401525b50505050565b6000600282049050600182168061314857607f821691505b6020821081141561315c5761315b61326b565b5b50919050565b61316b826132c9565b810181811067ffffffffffffffff8211171561318a5761318961329a565b5b80604052505050565b600061319e826130e4565b91507fffffffffffffffffffffffffffffffffffffffffffffffffffffffffffffffff8214156131d1576131d061320d565b5b600182019050919050565b60006131e7826130e4565b91506131f2836130e4565b9250826132025761320161323c565b5b828206905092915050565b7f4e487b7100000000000000000000000000000000000000000000000000000000600052601160045260246000fd5b7f4e487b7100000000000000000000000000000000000000000000000000000000600052601260045260246000fd5b7f4e487b7100000000000000000000000000000000000000000000000000000000600052602260045260246000fd5b7f4e487b7100000000000000000000000000000000000000000000000000000000600052604160045260246000fd5b6000601f19601f8301169050919050565b7f455243373231456e756d657261626c653a206f776e657220696e646578206f7560008201527f74206f6620626f756e6473000000000000000000000000000000000000000000602082015250565b7f4552433732313a207472616e7366657220746f206e6f6e20455243373231526560008201527f63656976657220696d706c656d656e7465720000000000000000000000000000602082015250565b7f4f776e61626c653a206e6577206f776e657220697320746865207a65726f206160008201527f6464726573730000000000000000000000000000000000000000000000000000602082015250565b7f4552433732313a207472616e736665722066726f6d20696e636f72726563742060008201527f6f776e6572000000000000000000000000000000000000000000000000000000602082015250565b7f4552433732313a20746f6b656e20616c7265616479206d696e74656400000000600082015250565b7f4552433732313a207472616e7366657220746f20746865207a65726f2061646460008201527f7265737300000000000000000000000000000000000000000000000000000000602082015250565b7f4552433732313a20617070726f766520746f2063616c6c657200000000000000600082015250565b7f4552433732313a206f70657261746f7220717565727920666f72206e6f6e657860008201527f697374656e7420746f6b656e0000000000000000000000000000000000000000602082015250565b7f4552433732313a20617070726f76652063616c6c6572206973206e6f74206f7760008201527f6e6572206e6f7220617070726f76656420666f7220616c6c0000000000000000602082015250565b7f4552433732313a2062616c616e636520717565727920666f7220746865207a6560008201527f726f206164647265737300000000000000000000000000000000000000000000602082015250565b7f4552433732313a206f776e657220717565727920666f72206e6f6e657869737460008201527f656e7420746f6b656e0000000000000000000000000000000000000000000000602082015250565b7f45524337323155524953746f726167653a2055524920736574206f66206e6f6e60008201527f6578697374656e7420746f6b656e000000000000000000000000000000000000602082015250565b7f4552433732313a206d696e7420746f20746865207a65726f2061646472657373600082015250565b7f45524337323155524953746f726167653a2055524920717565727920666f722060008201527f6e6f6e6578697374656e7420746f6b656e000000000000000000000000000000602082015250565b7f4552433732313a20617070726f76656420717565727920666f72206e6f6e657860008201527f697374656e7420746f6b656e0000000000000000000000000000000000000000602082015250565b7f4f776e61626c653a2063616c6c6572206973206e6f7420746865206f776e6572600082015250565b7f4552433732314d657461646174613a2055524920717565727920666f72206e6f60008201527f6e6578697374656e7420746f6b656e0000000000000000000000000000000000602082015250565b7f4552433732313a20617070726f76616c20746f2063757272656e74206f776e6560008201527f7200000000000000000000000000000000000000000000000000000000000000602082015250565b7f4552433732313a207472616e736665722063616c6c6572206973206e6f74206f60008201527f776e6572206e6f7220617070726f766564000000000000000000000000000000602082015250565b7f455243373231456e756d657261626c653a20676c6f62616c20696e646578206f60008201527f7574206f6620626f756e64730000000000000000000000000000000000000000602082015250565b6138778161307a565b811461388257600080fd5b50565b61388e8161308c565b811461389957600080fd5b50565b6138a581613098565b81146138b057600080fd5b50565b6138bc816130e4565b81146138c757600080fd5b5056fea2646970667358221220fc2cccaaf35a0e6be314ff3534e15450f6e3a8bc3b96d75455fdaf7a289c145964736f6c63430008010033",
  "linkReferences": {},
  "deployedLinkReferences": {}
}