{
  "_format": "hh-sol-artifact-1",
  "contractName": "AssetNFT",
  "sourceName": "contracts/AssetNFT.sol",
  "abi": [
    {
      "inputs": [],
      "stateMutability": "nonpayable",
      "type": "constructor"
    },
    {
      "anonymous": false,
      "inputs": [
        {
          "indexed": true,
          "internalType": "address",
          "name": "owner",
          "type": "address"
        },
        {
          "indexed": true,
          "internalType": "address",
          "name": "approved",
          "type": "address"
        },
        {
          "indexed": true,
          "internalType": "uint256",
          "name": "tokenId",
          "type": "uint256"
        }
      ],
      "name": "Approval",
      "type": "event"
    },
    {
      "anonymous": false,
      "inputs": [
        {
          "indexed": true,
          "internalType": "address",
          "name": "owner",
          "type": "address"
        },
        {
          "indexed": true,
          "internalType": "address",
          "name": "operator",
          "type": "address"
        },
        {
          "indexed": false,
          "internalType": "bool",
          "name": "approved",
          "type": "bool"
        }
      ],
      "name": "ApprovalForAll",
      "type": "event"
    },
    {
      "anonymous": false,
      "inputs": [
        {
          "indexed": true,
          "internalType": "address",
          "name": "previousOwner",
          "type": "address"
        },
        {
          "indexed": true,
          "internalType": "address",
          "name": "newOwner",
          "type": "address"
        }
      ],
      "name": "OwnershipTransferred",
      "type": "event"
    },
    {
      "anonymous": false,
      "inputs": [
        {
          "indexed": true,
          "internalType": "address",
          "name": "from",
          "type": "address"
        },
        {
          "indexed": true,
          "internalType": "address",
          "name": "to",
          "type": "address"
        },
        {
          "indexed": true,
          "internalType": "uint256",
          "name": "tokenId",
          "type": "uint256"
        }
      ],
      "name": "Transfer",
      "type": "event"
    },
    {
      "inputs": [
        {
          "internalType": "address",
          "name": "to",
          "type": "address"
        },
        {
          "internalType": "uint256",
          "name": "tokenId",
          "type": "uint256"
        }
      ],
      "name": "approve",
      "outputs": [],
      "stateMutability": "nonpayable",
      "type": "function"
    },
    {
      "inputs": [
        {
          "internalType": "address",
          "name": "owner",
          "type": "address"
        }
      ],
      "name": "balanceOf",
      "outputs": [
        {
          "internalType": "uint256",
          "name": "",
          "type": "uint256"
        }
      ],
      "stateMutability": "view",
      "type": "function"
    },
    {
      "inputs": [
        {
          "internalType": "uint256",
          "name": "tokenId",
          "type": "uint256"
        }
      ],
      "name": "getApproved",
      "outputs": [
        {
          "internalType": "address",
          "name": "",
          "type": "address"
        }
      ],
      "stateMutability": "view",
      "type": "function"
    },
    {
      "inputs": [
        {
          "internalType": "address",
          "name": "addr",
          "type": "address"
        }
      ],
      "name": "getTokensOfAddress",
      "outputs": [
        {
          "internalType": "uint256[]",
          "name": "",
          "type": "uint256[]"
        }
      ],
      "stateMutability": "view",
      "type": "function"
    },
    {
      "inputs": [
        {
          "internalType": "address",
          "name": "owner",
          "type": "address"
        },
        {
          "internalType": "address",
          "name": "operator",
          "type": "address"
        }
      ],
      "name": "isApprovedForAll",
      "outputs": [
        {
          "internalType": "bool",
          "name": "",
          "type": "bool"
        }
      ],
      "stateMutability": "view",
      "type": "function"
    },
    {
      "inputs": [
        {
          "internalType": "address",
          "name": "recipient",
          "type": "address"
        },
        {
          "internalType": "string",
          "name": "currTokenURI",
          "type": "string"
        }
      ],
      "name": "mintNFT",
      "outputs": [
        {
          "internalType": "uint256",
          "name": "",
          "type": "uint256"
        }
      ],
      "stateMutability": "nonpayable",
      "type": "function"
    },
    {
      "inputs": [],
      "name": "name",
      "outputs": [
        {
          "internalType": "string",
          "name": "",
          "type": "string"
        }
      ],
      "stateMutability": "view",
      "type": "function"
    },
    {
      "inputs": [],
      "name": "owner",
      "outputs": [
        {
          "internalType": "address",
          "name": "",
          "type": "address"
        }
      ],
      "stateMutability": "view",
      "type": "function"
    },
    {
      "inputs": [
        {
          "internalType": "uint256",
          "name": "tokenId",
          "type": "uint256"
        }
      ],
      "name": "ownerOf",
      "outputs": [
        {
          "internalType": "address",
          "name": "",
          "type": "address"
        }
      ],
      "stateMutability": "view",
      "type": "function"
    },
    {
      "inputs": [],
      "name": "renounceOwnership",
      "outputs": [],
      "stateMutability": "nonpayable",
      "type": "function"
    },
    {
      "inputs": [
        {
          "internalType": "address",
          "name": "to",
          "type": "address"
        },
        {
          "internalType": "string",
          "name": "uri",
          "type": "string"
        }
      ],
      "name": "safeMint",
      "outputs": [],
      "stateMutability": "nonpayable",
      "type": "function"
    },
    {
      "inputs": [
        {
          "internalType": "address",
          "name": "from",
          "type": "address"
        },
        {
          "internalType": "address",
          "name": "to",
          "type": "address"
        },
        {
          "internalType": "uint256",
          "name": "tokenId",
          "type": "uint256"
        }
      ],
      "name": "safeTransferFrom",
      "outputs": [],
      "stateMutability": "nonpayable",
      "type": "function"
    },
    {
      "inputs": [
        {
          "internalType": "address",
          "name": "from",
          "type": "address"
        },
        {
          "internalType": "address",
          "name": "to",
          "type": "address"
        },
        {
          "internalType": "uint256",
          "name": "tokenId",
          "type": "uint256"
        },
        {
          "internalType": "bytes",
          "name": "_data",
          "type": "bytes"
        }
      ],
      "name": "safeTransferFrom",
      "outputs": [],
      "stateMutability": "nonpayable",
      "type": "function"
    },
    {
      "inputs": [
        {
          "internalType": "address",
          "name": "operator",
          "type": "address"
        },
        {
          "internalType": "bool",
          "name": "approved",
          "type": "bool"
        }
      ],
      "name": "setApprovalForAll",
      "outputs": [],
      "stateMutability": "nonpayable",
      "type": "function"
    },
    {
      "inputs": [
        {
          "internalType": "bytes4",
          "name": "interfaceId",
          "type": "bytes4"
        }
      ],
      "name": "supportsInterface",
      "outputs": [
        {
          "internalType": "bool",
          "name": "",
          "type": "bool"
        }
      ],
      "stateMutability": "view",
      "type": "function"
    },
    {
      "inputs": [],
      "name": "symbol",
      "outputs": [
        {
          "internalType": "string",
          "name": "",
          "type": "string"
        }
      ],
      "stateMutability": "view",
      "type": "function"
    },
    {
      "inputs": [
        {
          "internalType": "uint256",
          "name": "index",
          "type": "uint256"
        }
      ],
      "name": "tokenByIndex",
      "outputs": [
        {
          "internalType": "uint256",
          "name": "",
          "type": "uint256"
        }
      ],
      "stateMutability": "view",
      "type": "function"
    },
    {
      "inputs": [
        {
          "internalType": "address",
          "name": "owner",
          "type": "address"
        },
        {
          "internalType": "uint256",
          "name": "index",
          "type": "uint256"
        }
      ],
      "name": "tokenOfOwnerByIndex",
      "outputs": [
        {
          "internalType": "uint256",
          "name": "",
          "type": "uint256"
        }
      ],
      "stateMutability": "view",
      "type": "function"
    },
    {
      "inputs": [
        {
          "internalType": "uint256",
          "name": "tokenId",
          "type": "uint256"
        }
      ],
      "name": "tokenURI",
      "outputs": [
        {
          "internalType": "string",
          "name": "",
          "type": "string"
        }
      ],
      "stateMutability": "view",
      "type": "function"
    },
    {
      "inputs": [],
      "name": "totalSupply",
      "outputs": [
        {
          "internalType": "uint256",
          "name": "",
          "type": "uint256"
        }
      ],
      "stateMutability": "view",
      "type": "function"
    },
    {
      "inputs": [
        {
          "internalType": "address",
          "name": "from",
          "type": "address"
        },
        {
          "internalType": "address",
          "name": "to",
          "type": "address"
        },
        {
          "internalType": "uint256",
          "name": "tokenId",
          "type": "uint256"
        }
      ],
      "name": "transferFrom",
      "outputs": [],
      "stateMutability": "nonpayable",
      "type": "function"
    },
    {
      "inputs": [
        {
          "internalType": "address",
          "name": "newOwner",
          "type": "address"
        }
      ],
      "name": "transferOwnership",
      "outputs": [],
      "stateMutability": "nonpayable",
      "type": "function"
    }
  ],
  "bytecode": "0x60806040523480156200001157600080fd5b506040518060400160405280600881526020017f41737365744e46540000000000000000000000000000000000000000000000008152506040518060400160405280600381526020017f41534e0000000000000000000000000000000000000000000000000000000000815250816000908051906020019062000096929190620001a6565b508060019080519060200190620000af929190620001a6565b505050620000d2620000c6620000d860201b60201c565b620000e060201b60201c565b620002bb565b600033905090565b6000600b60009054906101000a900473ffffffffffffffffffffffffffffffffffffffff16905081600b60006101000a81548173ffffffffffffffffffffffffffffffffffffffff021916908373ffffffffffffffffffffffffffffffffffffffff1602179055508173ffffffffffffffffffffffffffffffffffffffff168173ffffffffffffffffffffffffffffffffffffffff167f8be0079c531659141344cd1fd0a4f28419497f9722a3daafe3b4186f6b6457e060405160405180910390a35050565b828054620001b49062000256565b90600052602060002090601f016020900481019282620001d8576000855562000224565b82601f10620001f357805160ff191683800117855562000224565b8280016001018555821562000224579182015b828111156200022357825182559160200191906001019062000206565b5b50905062000233919062000237565b5090565b5b808211156200025257600081600090555060010162000238565b5090565b600060028204905060018216806200026f57607f821691505b602082108114156200028657620002856200028c565b5b50919050565b7f4e487b7100000000000000000000000000000000000000000000000000000000600052602260045260246000fd5b613b1580620002cb6000396000f3fe608060405234801561001057600080fd5b50600436106101425760003560e01c806370a08231116100b8578063b88d4fde1161007c578063b88d4fde14610389578063c87b56dd146103a5578063d204c45e146103d5578063e985e9c5146103f1578063eacabe1414610421578063f2fde38b1461045157610142565b806370a08231146102f7578063715018a6146103275780638da5cb5b1461033157806395d89b411461034f578063a22cb4651461036d57610142565b806318160ddd1161010a57806318160ddd1461021157806323b872dd1461022f5780632f745c591461024b57806342842e0e1461027b5780634f6ccce7146102975780636352211e146102c757610142565b806301ffc9a71461014757806306fdde0314610177578063081812fc14610195578063095ea7b3146101c557806314de3919146101e1575b600080fd5b610161600480360381019061015c91906128c0565b61046d565b60405161016e9190612df9565b60405180910390f35b61017f61047f565b60405161018c9190612e14565b60405180910390f35b6101af60048036038101906101aa9190612912565b610511565b6040516101bc9190612d70565b60405180910390f35b6101df60048036038101906101da9190612884565b610596565b005b6101fb60048036038101906101f691906126c5565b6106ae565b6040516102089190612dd7565b60405180910390f35b6102196107a8565b60405161022691906130b6565b60405180910390f35b6102496004803603810190610244919061272a565b6107b5565b005b61026560048036038101906102609190612884565b610815565b60405161027291906130b6565b60405180910390f35b6102956004803603810190610290919061272a565b6108ba565b005b6102b160048036038101906102ac9190612912565b6108da565b6040516102be91906130b6565b60405180910390f35b6102e160048036038101906102dc9190612912565b610971565b6040516102ee9190612d70565b60405180910390f35b610311600480360381019061030c91906126c5565b610a23565b60405161031e91906130b6565b60405180910390f35b61032f610adb565b005b610339610b63565b6040516103469190612d70565b60405180910390f35b610357610b8d565b6040516103649190612e14565b60405180910390f35b610387600480360381019061038291906127f4565b610c1f565b005b6103a3600480360381019061039e9190612779565b610c35565b005b6103bf60048036038101906103ba9190612912565b610c97565b6040516103cc9190612e14565b60405180910390f35b6103ef60048036038101906103ea9190612830565b610ca9565b005b61040b600480360381019061040691906126ee565b610d56565b6040516104189190612df9565b60405180910390f35b61043b60048036038101906104369190612830565b610dea565b60405161044891906130b6565b60405180910390f35b61046b600480360381019061046691906126c5565b610e22565b005b600061047882610f1a565b9050919050565b60606000805461048e90613345565b80601f01602080910402602001604051908101604052809291908181526020018280546104ba90613345565b80156105075780601f106104dc57610100808354040283529160200191610507565b820191906000526020600020905b8154815290600101906020018083116104ea57829003601f168201915b5050505050905090565b600061051c82610f94565b61055b576040517f08c379a000000000000000000000000000000000000000000000000000000000815260040161055290612ff6565b60405180910390fd5b6004600083815260200190815260200160002060009054906101000a900473ffffffffffffffffffffffffffffffffffffffff169050919050565b60006105a182610971565b90508073ffffffffffffffffffffffffffffffffffffffff168373ffffffffffffffffffffffffffffffffffffffff161415610612576040517f08c379a000000000000000000000000000000000000000000000000000000000815260040161060990613056565b60405180910390fd5b8073ffffffffffffffffffffffffffffffffffffffff16610631611000565b73ffffffffffffffffffffffffffffffffffffffff161480610660575061065f8161065a611000565b610d56565b5b61069f576040517f08c379a000000000000000000000000000000000000000000000000000000000815260040161069690612f36565b60405180910390fd5b6106a98383611008565b505050565b606060006106bb83610a23565b905060008167ffffffffffffffff8111156106ff577f4e487b7100000000000000000000000000000000000000000000000000000000600052604160045260246000fd5b60405190808252806020026020018201604052801561072d5781602001602082028036833780820191505090505b50905060005b8281101561079d576107458582610815565b82828151811061077e577f4e487b7100000000000000000000000000000000000000000000000000000000600052603260045260246000fd5b6020026020010181815250508080610795906133a8565b915050610733565b508092505050919050565b6000600880549050905090565b6107c66107c0611000565b826110c1565b610805576040517f08c379a00000000000000000000000000000000000000000000000000000000081526004016107fc90613076565b60405180910390fd5b61081083838361119f565b505050565b600061082083610a23565b8210610861576040517f08c379a000000000000000000000000000000000000000000000000000000000815260040161085890612e36565b60405180910390fd5b600660008473ffffffffffffffffffffffffffffffffffffffff1673ffffffffffffffffffffffffffffffffffffffff168152602001908152602001600020600083815260200190815260200160002054905092915050565b6108d583838360405180602001604052806000815250610c35565b505050565b60006108e46107a8565b8210610925576040517f08c379a000000000000000000000000000000000000000000000000000000000815260040161091c90613096565b60405180910390fd5b6008828154811061095f577f4e487b7100000000000000000000000000000000000000000000000000000000600052603260045260246000fd5b90600052602060002001549050919050565b6000806002600084815260200190815260200160002060009054906101000a900473ffffffffffffffffffffffffffffffffffffffff169050600073ffffffffffffffffffffffffffffffffffffffff168173ffffffffffffffffffffffffffffffffffffffff161415610a1a576040517f08c379a0000000000000000000000000000000000000000000000000000000008152600401610a1190612f76565b60405180910390fd5b80915050919050565b60008073ffffffffffffffffffffffffffffffffffffffff168273ffffffffffffffffffffffffffffffffffffffff161415610a94576040517f08c379a0000000000000000000000000000000000000000000000000000000008152600401610a8b90612f56565b60405180910390fd5b600360008373ffffffffffffffffffffffffffffffffffffffff1673ffffffffffffffffffffffffffffffffffffffff168152602001908152602001600020549050919050565b610ae3611000565b73ffffffffffffffffffffffffffffffffffffffff16610b01610b63565b73ffffffffffffffffffffffffffffffffffffffff1614610b57576040517f08c379a0000000000000000000000000000000000000000000000000000000008152600401610b4e90613016565b60405180910390fd5b610b616000611406565b565b6000600b60009054906101000a900473ffffffffffffffffffffffffffffffffffffffff16905090565b606060018054610b9c90613345565b80601f0160208091040260200160405190810160405280929190818152602001828054610bc890613345565b8015610c155780601f10610bea57610100808354040283529160200191610c15565b820191906000526020600020905b815481529060010190602001808311610bf857829003601f168201915b5050505050905090565b610c31610c2a611000565b83836114cc565b5050565b610c46610c40611000565b836110c1565b610c85576040517f08c379a0000000000000000000000000000000000000000000000000000000008152600401610c7c90613076565b60405180910390fd5b610c9184848484611639565b50505050565b6060610ca282611695565b9050919050565b610cb1611000565b73ffffffffffffffffffffffffffffffffffffffff16610ccf610b63565b73ffffffffffffffffffffffffffffffffffffffff1614610d25576040517f08c379a0000000000000000000000000000000000000000000000000000000008152600401610d1c90613016565b60405180910390fd5b6000610d31600c6117e7565b9050610d3d600c6117f5565b610d47838261180b565b610d518183611829565b505050565b6000600560008473ffffffffffffffffffffffffffffffffffffffff1673ffffffffffffffffffffffffffffffffffffffff16815260200190815260200160002060008373ffffffffffffffffffffffffffffffffffffffff1673ffffffffffffffffffffffffffffffffffffffff16815260200190815260200160002060009054906101000a900460ff16905092915050565b6000610df6600c6117f5565b6000610e02600c6117e7565b9050610e0e848261189d565b610e188184611829565b8091505092915050565b610e2a611000565b73ffffffffffffffffffffffffffffffffffffffff16610e48610b63565b73ffffffffffffffffffffffffffffffffffffffff1614610e9e576040517f08c379a0000000000000000000000000000000000000000000000000000000008152600401610e9590613016565b60405180910390fd5b600073ffffffffffffffffffffffffffffffffffffffff168173ffffffffffffffffffffffffffffffffffffffff161415610f0e576040517f08c379a0000000000000000000000000000000000000000000000000000000008152600401610f0590612e76565b60405180910390fd5b610f1781611406565b50565b60007f780e9d63000000000000000000000000000000000000000000000000000000007bffffffffffffffffffffffffffffffffffffffffffffffffffffffff1916827bffffffffffffffffffffffffffffffffffffffffffffffffffffffff19161480610f8d5750610f8c82611a77565b5b9050919050565b60008073ffffffffffffffffffffffffffffffffffffffff166002600084815260200190815260200160002060009054906101000a900473ffffffffffffffffffffffffffffffffffffffff1673ffffffffffffffffffffffffffffffffffffffff1614159050919050565b600033905090565b816004600083815260200190815260200160002060006101000a81548173ffffffffffffffffffffffffffffffffffffffff021916908373ffffffffffffffffffffffffffffffffffffffff160217905550808273ffffffffffffffffffffffffffffffffffffffff1661107b83610971565b73ffffffffffffffffffffffffffffffffffffffff167f8c5be1e5ebec7d5bd14f71427d1e84f3dd0314c0f7b2291e5b200ac8c7c3b92560405160405180910390a45050565b60006110cc82610f94565b61110b576040517f08c379a000000000000000000000000000000000000000000000000000000000815260040161110290612f16565b60405180910390fd5b600061111683610971565b90508073ffffffffffffffffffffffffffffffffffffffff168473ffffffffffffffffffffffffffffffffffffffff16148061115857506111578185610d56565b5b8061119657508373ffffffffffffffffffffffffffffffffffffffff1661117e84610511565b73ffffffffffffffffffffffffffffffffffffffff16145b91505092915050565b8273ffffffffffffffffffffffffffffffffffffffff166111bf82610971565b73ffffffffffffffffffffffffffffffffffffffff1614611215576040517f08c379a000000000000000000000000000000000000000000000000000000000815260040161120c90612e96565b60405180910390fd5b600073ffffffffffffffffffffffffffffffffffffffff168273ffffffffffffffffffffffffffffffffffffffff161415611285576040517f08c379a000000000000000000000000000000000000000000000000000000000815260040161127c90612ed6565b60405180910390fd5b611290838383611b59565b61129b600082611008565b6001600360008573ffffffffffffffffffffffffffffffffffffffff1673ffffffffffffffffffffffffffffffffffffffff16815260200190815260200160002060008282546112eb919061325b565b925050819055506001600360008473ffffffffffffffffffffffffffffffffffffffff1673ffffffffffffffffffffffffffffffffffffffff168152602001908152602001600020600082825461134291906131d4565b92505081905550816002600083815260200190815260200160002060006101000a81548173ffffffffffffffffffffffffffffffffffffffff021916908373ffffffffffffffffffffffffffffffffffffffff160217905550808273ffffffffffffffffffffffffffffffffffffffff168473ffffffffffffffffffffffffffffffffffffffff167fddf252ad1be2c89b69c2b068fc378daa952ba7f163c4a11628f55a4df523b3ef60405160405180910390a4611401838383611b69565b505050565b6000600b60009054906101000a900473ffffffffffffffffffffffffffffffffffffffff16905081600b60006101000a81548173ffffffffffffffffffffffffffffffffffffffff021916908373ffffffffffffffffffffffffffffffffffffffff1602179055508173ffffffffffffffffffffffffffffffffffffffff168173ffffffffffffffffffffffffffffffffffffffff167f8be0079c531659141344cd1fd0a4f28419497f9722a3daafe3b4186f6b6457e060405160405180910390a35050565b8173ffffffffffffffffffffffffffffffffffffffff168373ffffffffffffffffffffffffffffffffffffffff16141561153b576040517f08c379a000000000000000000000000000000000000000000000000000000000815260040161153290612ef6565b60405180910390fd5b80600560008573ffffffffffffffffffffffffffffffffffffffff1673ffffffffffffffffffffffffffffffffffffffff16815260200190815260200160002060008473ffffffffffffffffffffffffffffffffffffffff1673ffffffffffffffffffffffffffffffffffffffff16815260200190815260200160002060006101000a81548160ff0219169083151502179055508173ffffffffffffffffffffffffffffffffffffffff168373ffffffffffffffffffffffffffffffffffffffff167f17307eab39ab6107e8899845ad3d59bd9653f200f220920489ca2b5937696c318360405161162c9190612df9565b60405180910390a3505050565b61164484848461119f565b61165084848484611b6e565b61168f576040517f08c379a000000000000000000000000000000000000000000000000000000000815260040161168690612e56565b60405180910390fd5b50505050565b60606116a082610f94565b6116df576040517f08c379a00000000000000000000000000000000000000000000000000000000081526004016116d690612fd6565b60405180910390fd5b6000600a600084815260200190815260200160002080546116ff90613345565b80601f016020809104026020016040519081016040528092919081815260200182805461172b90613345565b80156117785780601f1061174d57610100808354040283529160200191611778565b820191906000526020600020905b81548152906001019060200180831161175b57829003601f168201915b505050505090506000611789611d05565b905060008151141561179f5781925050506117e2565b6000825111156117d45780826040516020016117bc929190612d4c565b604051602081830303815290604052925050506117e2565b6117dd84611d1c565b925050505b919050565b600081600001549050919050565b6001816000016000828254019250508190555050565b611825828260405180602001604052806000815250611dc3565b5050565b61183282610f94565b611871576040517f08c379a000000000000000000000000000000000000000000000000000000000815260040161186890612f96565b60405180910390fd5b80600a600084815260200190815260200160002090805190602001906118989291906124e9565b505050565b600073ffffffffffffffffffffffffffffffffffffffff168273ffffffffffffffffffffffffffffffffffffffff16141561190d576040517f08c379a000000000000000000000000000000000000000000000000000000000815260040161190490612fb6565b60405180910390fd5b61191681610f94565b15611956576040517f08c379a000000000000000000000000000000000000000000000000000000000815260040161194d90612eb6565b60405180910390fd5b61196260008383611b59565b6001600360008473ffffffffffffffffffffffffffffffffffffffff1673ffffffffffffffffffffffffffffffffffffffff16815260200190815260200160002060008282546119b291906131d4565b92505081905550816002600083815260200190815260200160002060006101000a81548173ffffffffffffffffffffffffffffffffffffffff021916908373ffffffffffffffffffffffffffffffffffffffff160217905550808273ffffffffffffffffffffffffffffffffffffffff16600073ffffffffffffffffffffffffffffffffffffffff167fddf252ad1be2c89b69c2b068fc378daa952ba7f163c4a11628f55a4df523b3ef60405160405180910390a4611a7360008383611b69565b5050565b60007f80ac58cd000000000000000000000000000000000000000000000000000000007bffffffffffffffffffffffffffffffffffffffffffffffffffffffff1916827bffffffffffffffffffffffffffffffffffffffffffffffffffffffff19161480611b4257507f5b5e139f000000000000000000000000000000000000000000000000000000007bffffffffffffffffffffffffffffffffffffffffffffffffffffffff1916827bffffffffffffffffffffffffffffffffffffffffffffffffffffffff1916145b80611b525750611b5182611e1e565b5b9050919050565b611b64838383611e88565b505050565b505050565b6000611b8f8473ffffffffffffffffffffffffffffffffffffffff16611f9c565b15611cf8578373ffffffffffffffffffffffffffffffffffffffff1663150b7a02611bb8611000565b8786866040518563ffffffff1660e01b8152600401611bda9493929190612d8b565b602060405180830381600087803b158015611bf457600080fd5b505af1925050508015611c2557506040513d601f19601f82011682018060405250810190611c2291906128e9565b60015b611ca8573d8060008114611c55576040519150601f19603f3d011682016040523d82523d6000602084013e611c5a565b606091505b50600081511415611ca0576040517f08c379a0000000000000000000000000000000000000000000000000000000008152600401611c9790612e56565b60405180910390fd5b805181602001fd5b63150b7a0260e01b7bffffffffffffffffffffffffffffffffffffffffffffffffffffffff1916817bffffffffffffffffffffffffffffffffffffffffffffffffffffffff191614915050611cfd565b600190505b949350505050565b606060405180602001604052806000815250905090565b6060611d2782610f94565b611d66576040517f08c379a0000000000000000000000000000000000000000000000000000000008152600401611d5d90613036565b60405180910390fd5b6000611d70611d05565b90506000815111611d905760405180602001604052806000815250611dbb565b80611d9a84611fbf565b604051602001611dab929190612d4c565b6040516020818303038152906040525b915050919050565b611dcd838361189d565b611dda6000848484611b6e565b611e19576040517f08c379a0000000000000000000000000000000000000000000000000000000008152600401611e1090612e56565b60405180910390fd5b505050565b60007f01ffc9a7000000000000000000000000000000000000000000000000000000007bffffffffffffffffffffffffffffffffffffffffffffffffffffffff1916827bffffffffffffffffffffffffffffffffffffffffffffffffffffffff1916149050919050565b611e9383838361216c565b600073ffffffffffffffffffffffffffffffffffffffff168373ffffffffffffffffffffffffffffffffffffffff161415611ed657611ed181612171565b611f15565b8173ffffffffffffffffffffffffffffffffffffffff168373ffffffffffffffffffffffffffffffffffffffff1614611f1457611f1383826121ba565b5b5b600073ffffffffffffffffffffffffffffffffffffffff168273ffffffffffffffffffffffffffffffffffffffff161415611f5857611f5381612327565b611f97565b8273ffffffffffffffffffffffffffffffffffffffff168273ffffffffffffffffffffffffffffffffffffffff1614611f9657611f95828261246a565b5b5b505050565b6000808273ffffffffffffffffffffffffffffffffffffffff163b119050919050565b60606000821415612007576040518060400160405280600181526020017f30000000000000000000000000000000000000000000000000000000000000008152509050612167565b600082905060005b60008214612039578080612022906133a8565b915050600a82612032919061322a565b915061200f565b60008167ffffffffffffffff81111561207b577f4e487b7100000000000000000000000000000000000000000000000000000000600052604160045260246000fd5b6040519080825280601f01601f1916602001820160405280156120ad5781602001600182028036833780820191505090505b5090505b60008514612160576001826120c6919061325b565b9150600a856120d591906133f1565b60306120e191906131d4565b60f81b81838151811061211d577f4e487b7100000000000000000000000000000000000000000000000000000000600052603260045260246000fd5b60200101907effffffffffffffffffffffffffffffffffffffffffffffffffffffffffffff1916908160001a905350600a85612159919061322a565b94506120b1565b8093505050505b919050565b505050565b6008805490506009600083815260200190815260200160002081905550600881908060018154018082558091505060019003906000526020600020016000909190919091505550565b600060016121c784610a23565b6121d1919061325b565b90506000600760008481526020019081526020016000205490508181146122b6576000600660008673ffffffffffffffffffffffffffffffffffffffff1673ffffffffffffffffffffffffffffffffffffffff168152602001908152602001600020600084815260200190815260200160002054905080600660008773ffffffffffffffffffffffffffffffffffffffff1673ffffffffffffffffffffffffffffffffffffffff168152602001908152602001600020600084815260200190815260200160002081905550816007600083815260200190815260200160002081905550505b6007600084815260200190815260200160002060009055600660008573ffffffffffffffffffffffffffffffffffffffff1673ffffffffffffffffffffffffffffffffffffffff16815260200190815260200160002060008381526020019081526020016000206000905550505050565b6000600160088054905061233b919061325b565b9050600060096000848152602001908152602001600020549050600060088381548110612391577f4e487b7100000000000000000000000000000000000000000000000000000000600052603260045260246000fd5b9060005260206000200154905080600883815481106123d9577f4e487b7100000000000000000000000000000000000000000000000000000000600052603260045260246000fd5b90600052602060002001819055508160096000838152602001908152602001600020819055506009600085815260200190815260200160002060009055600880548061244e577f4e487b7100000000000000000000000000000000000000000000000000000000600052603160045260246000fd5b6001900381819060005260206000200160009055905550505050565b600061247583610a23565b905081600660008573ffffffffffffffffffffffffffffffffffffffff1673ffffffffffffffffffffffffffffffffffffffff168152602001908152602001600020600083815260200190815260200160002081905550806007600084815260200190815260200160002081905550505050565b8280546124f590613345565b90600052602060002090601f016020900481019282612517576000855561255e565b82601f1061253057805160ff191683800117855561255e565b8280016001018555821561255e579182015b8281111561255d578251825591602001919060010190612542565b5b50905061256b919061256f565b5090565b5b80821115612588576000816000905550600101612570565b5090565b600061259f61259a846130f6565b6130d1565b9050828152602081018484840111156125b757600080fd5b6125c2848285613303565b509392505050565b60006125dd6125d884613127565b6130d1565b9050828152602081018484840111156125f557600080fd5b612600848285613303565b509392505050565b60008135905061261781613a83565b92915050565b60008135905061262c81613a9a565b92915050565b60008135905061264181613ab1565b92915050565b60008151905061265681613ab1565b92915050565b600082601f83011261266d57600080fd5b813561267d84826020860161258c565b91505092915050565b600082601f83011261269757600080fd5b81356126a78482602086016125ca565b91505092915050565b6000813590506126bf81613ac8565b92915050565b6000602082840312156126d757600080fd5b60006126e584828501612608565b91505092915050565b6000806040838503121561270157600080fd5b600061270f85828601612608565b925050602061272085828601612608565b9150509250929050565b60008060006060848603121561273f57600080fd5b600061274d86828701612608565b935050602061275e86828701612608565b925050604061276f868287016126b0565b9150509250925092565b6000806000806080858703121561278f57600080fd5b600061279d87828801612608565b94505060206127ae87828801612608565b93505060406127bf878288016126b0565b925050606085013567ffffffffffffffff8111156127dc57600080fd5b6127e88782880161265c565b91505092959194509250565b6000806040838503121561280757600080fd5b600061281585828601612608565b92505060206128268582860161261d565b9150509250929050565b6000806040838503121561284357600080fd5b600061285185828601612608565b925050602083013567ffffffffffffffff81111561286e57600080fd5b61287a85828601612686565b9150509250929050565b6000806040838503121561289757600080fd5b60006128a585828601612608565b92505060206128b6858286016126b0565b9150509250929050565b6000602082840312156128d257600080fd5b60006128e084828501612632565b91505092915050565b6000602082840312156128fb57600080fd5b600061290984828501612647565b91505092915050565b60006020828403121561292457600080fd5b6000612932848285016126b0565b91505092915050565b60006129478383612d2e565b60208301905092915050565b61295c8161328f565b82525050565b600061296d82613168565b6129778185613196565b935061298283613158565b8060005b838110156129b357815161299a888261293b565b97506129a583613189565b925050600181019050612986565b5085935050505092915050565b6129c9816132a1565b82525050565b60006129da82613173565b6129e481856131a7565b93506129f4818560208601613312565b6129fd816134de565b840191505092915050565b6000612a138261317e565b612a1d81856131b8565b9350612a2d818560208601613312565b612a36816134de565b840191505092915050565b6000612a4c8261317e565b612a5681856131c9565b9350612a66818560208601613312565b80840191505092915050565b6000612a7f602b836131b8565b9150612a8a826134ef565b604082019050919050565b6000612aa26032836131b8565b9150612aad8261353e565b604082019050919050565b6000612ac56026836131b8565b9150612ad08261358d565b604082019050919050565b6000612ae86025836131b8565b9150612af3826135dc565b604082019050919050565b6000612b0b601c836131b8565b9150612b168261362b565b602082019050919050565b6000612b2e6024836131b8565b9150612b3982613654565b604082019050919050565b6000612b516019836131b8565b9150612b5c826136a3565b602082019050919050565b6000612b74602c836131b8565b9150612b7f826136cc565b604082019050919050565b6000612b976038836131b8565b9150612ba28261371b565b604082019050919050565b6000612bba602a836131b8565b9150612bc58261376a565b604082019050919050565b6000612bdd6029836131b8565b9150612be8826137b9565b604082019050919050565b6000612c00602e836131b8565b9150612c0b82613808565b604082019050919050565b6000612c236020836131b8565b9150612c2e82613857565b602082019050919050565b6000612c466031836131b8565b9150612c5182613880565b604082019050919050565b6000612c69602c836131b8565b9150612c74826138cf565b604082019050919050565b6000612c8c6020836131b8565b9150612c978261391e565b602082019050919050565b6000612caf602f836131b8565b9150612cba82613947565b604082019050919050565b6000612cd26021836131b8565b9150612cdd82613996565b604082019050919050565b6000612cf56031836131b8565b9150612d00826139e5565b604082019050919050565b6000612d18602c836131b8565b9150612d2382613a34565b604082019050919050565b612d37816132f9565b82525050565b612d46816132f9565b82525050565b6000612d588285612a41565b9150612d648284612a41565b91508190509392505050565b6000602082019050612d856000830184612953565b92915050565b6000608082019050612da06000830187612953565b612dad6020830186612953565b612dba6040830185612d3d565b8181036060830152612dcc81846129cf565b905095945050505050565b60006020820190508181036000830152612df18184612962565b905092915050565b6000602082019050612e0e60008301846129c0565b92915050565b60006020820190508181036000830152612e2e8184612a08565b905092915050565b60006020820190508181036000830152612e4f81612a72565b9050919050565b60006020820190508181036000830152612e6f81612a95565b9050919050565b60006020820190508181036000830152612e8f81612ab8565b9050919050565b60006020820190508181036000830152612eaf81612adb565b9050919050565b60006020820190508181036000830152612ecf81612afe565b9050919050565b60006020820190508181036000830152612eef81612b21565b9050919050565b60006020820190508181036000830152612f0f81612b44565b9050919050565b60006020820190508181036000830152612f2f81612b67565b9050919050565b60006020820190508181036000830152612f4f81612b8a565b9050919050565b60006020820190508181036000830152612f6f81612bad565b9050919050565b60006020820190508181036000830152612f8f81612bd0565b9050919050565b60006020820190508181036000830152612faf81612bf3565b9050919050565b60006020820190508181036000830152612fcf81612c16565b9050919050565b60006020820190508181036000830152612fef81612c39565b9050919050565b6000602082019050818103600083015261300f81612c5c565b9050919050565b6000602082019050818103600083015261302f81612c7f565b9050919050565b6000602082019050818103600083015261304f81612ca2565b9050919050565b6000602082019050818103600083015261306f81612cc5565b9050919050565b6000602082019050818103600083015261308f81612ce8565b9050919050565b600060208201905081810360008301526130af81612d0b565b9050919050565b60006020820190506130cb6000830184612d3d565b92915050565b60006130db6130ec565b90506130e78282613377565b919050565b6000604051905090565b600067ffffffffffffffff821115613111576131106134af565b5b61311a826134de565b9050602081019050919050565b600067ffffffffffffffff821115613142576131416134af565b5b61314b826134de565b9050602081019050919050565b6000819050602082019050919050565b600081519050919050565b600081519050919050565b600081519050919050565b6000602082019050919050565b600082825260208201905092915050565b600082825260208201905092915050565b600082825260208201905092915050565b600081905092915050565b60006131df826132f9565b91506131ea836132f9565b9250827fffffffffffffffffffffffffffffffffffffffffffffffffffffffffffffffff0382111561321f5761321e613422565b5b828201905092915050565b6000613235826132f9565b9150613240836132f9565b9250826132505761324f613451565b5b828204905092915050565b6000613266826132f9565b9150613271836132f9565b92508282101561328457613283613422565b5b828203905092915050565b600061329a826132d9565b9050919050565b60008115159050919050565b60007fffffffff0000000000000000000000000000000000000000000000000000000082169050919050565b600073ffffffffffffffffffffffffffffffffffffffff82169050919050565b6000819050919050565b82818337600083830152505050565b60005b83811015613330578082015181840152602081019050613315565b8381111561333f576000848401525b50505050565b6000600282049050600182168061335d57607f821691505b6020821081141561337157613370613480565b5b50919050565b613380826134de565b810181811067ffffffffffffffff8211171561339f5761339e6134af565b5b80604052505050565b60006133b3826132f9565b91507fffffffffffffffffffffffffffffffffffffffffffffffffffffffffffffffff8214156133e6576133e5613422565b5b600182019050919050565b60006133fc826132f9565b9150613407836132f9565b92508261341757613416613451565b5b828206905092915050565b7f4e487b7100000000000000000000000000000000000000000000000000000000600052601160045260246000fd5b7f4e487b7100000000000000000000000000000000000000000000000000000000600052601260045260246000fd5b7f4e487b7100000000000000000000000000000000000000000000000000000000600052602260045260246000fd5b7f4e487b7100000000000000000000000000000000000000000000000000000000600052604160045260246000fd5b6000601f19601f8301169050919050565b7f455243373231456e756d657261626c653a206f776e657220696e646578206f7560008201527f74206f6620626f756e6473000000000000000000000000000000000000000000602082015250565b7f4552433732313a207472616e7366657220746f206e6f6e20455243373231526560008201527f63656976657220696d706c656d656e7465720000000000000000000000000000602082015250565b7f4f776e61626c653a206e6577206f776e657220697320746865207a65726f206160008201527f6464726573730000000000000000000000000000000000000000000000000000602082015250565b7f4552433732313a207472616e736665722066726f6d20696e636f72726563742060008201527f6f776e6572000000000000000000000000000000000000000000000000000000602082015250565b7f4552433732313a20746f6b656e20616c7265616479206d696e74656400000000600082015250565b7f4552433732313a207472616e7366657220746f20746865207a65726f2061646460008201527f7265737300000000000000000000000000000000000000000000000000000000602082015250565b7f4552433732313a20617070726f766520746f2063616c6c657200000000000000600082015250565b7f4552433732313a206f70657261746f7220717565727920666f72206e6f6e657860008201527f697374656e7420746f6b656e0000000000000000000000000000000000000000602082015250565b7f4552433732313a20617070726f76652063616c6c6572206973206e6f74206f7760008201527f6e6572206e6f7220617070726f76656420666f7220616c6c0000000000000000602082015250565b7f4552433732313a2062616c616e636520717565727920666f7220746865207a6560008201527f726f206164647265737300000000000000000000000000000000000000000000602082015250565b7f4552433732313a206f776e657220717565727920666f72206e6f6e657869737460008201527f656e7420746f6b656e0000000000000000000000000000000000000000000000602082015250565b7f45524337323155524953746f726167653a2055524920736574206f66206e6f6e60008201527f6578697374656e7420746f6b656e000000000000000000000000000000000000602082015250565b7f4552433732313a206d696e7420746f20746865207a65726f2061646472657373600082015250565b7f45524337323155524953746f726167653a2055524920717565727920666f722060008201527f6e6f6e6578697374656e7420746f6b656e000000000000000000000000000000602082015250565b7f4552433732313a20617070726f76656420717565727920666f72206e6f6e657860008201527f697374656e7420746f6b656e0000000000000000000000000000000000000000602082015250565b7f4f776e61626c653a2063616c6c6572206973206e6f7420746865206f776e6572600082015250565b7f4552433732314d657461646174613a2055524920717565727920666f72206e6f60008201527f6e6578697374656e7420746f6b656e0000000000000000000000000000000000602082015250565b7f4552433732313a20617070726f76616c20746f2063757272656e74206f776e6560008201527f7200000000000000000000000000000000000000000000000000000000000000602082015250565b7f4552433732313a207472616e736665722063616c6c6572206973206e6f74206f60008201527f776e6572206e6f7220617070726f766564000000000000000000000000000000602082015250565b7f455243373231456e756d657261626c653a20676c6f62616c20696e646578206f60008201527f7574206f6620626f756e64730000000000000000000000000000000000000000602082015250565b613a8c8161328f565b8114613a9757600080fd5b50565b613aa3816132a1565b8114613aae57600080fd5b50565b613aba816132ad565b8114613ac557600080fd5b50565b613ad1816132f9565b8114613adc57600080fd5b5056fea2646970667358221220dffe51fe41c193ce43c3762f7ba37f6809fd7889e7b07735fa469542bd4d839264736f6c63430008010033",
  "linkReferences": {},
  "deployedLinkReferences": {}
}