{
  "_format": "hh-sol-artifact-1",
  "contractName": "LoanRequest",
  "sourceName": "contracts/LoanRequest.sol",
  "abi": [
    {
      "inputs": [
        {
          "internalType": "address payable",
          "name": "_borrower",
          "type": "address"
        },
        {
          "internalType": "uint256",
          "name": "_requestAmount",
          "type": "uint256"
        },
        {
          "internalType": "uint256",
          "name": "_assetId",
          "type": "uint256"
        }
      ],
      "stateMutability": "nonpayable",
      "type": "constructor"
    },
    {
      "inputs": [],
      "name": "acceptLoanTerms",
      "outputs": [],
      "stateMutability": "nonpayable",
      "type": "function"
    },
    {
      "inputs": [],
      "name": "balanceOf",
      "outputs": [
        {
          "internalType": "uint256",
          "name": "",
          "type": "uint256"
        }
      ],
      "stateMutability": "view",
      "type": "function"
    },
    {
      "inputs": [
        {
          "internalType": "uint256",
          "name": "_interestAmount",
          "type": "uint256"
        }
      ],
      "name": "bid",
      "outputs": [],
      "stateMutability": "payable",
      "type": "function"
    },
    {
      "inputs": [],
      "name": "collateralContract",
      "outputs": [
        {
          "internalType": "contract AssetNFT",
          "name": "",
          "type": "address"
        }
      ],
      "stateMutability": "view",
      "type": "function"
    },
    {
      "inputs": [
        {
          "internalType": "address",
          "name": "",
          "type": "address"
        },
        {
          "internalType": "address",
          "name": "",
          "type": "address"
        },
        {
          "internalType": "uint256",
          "name": "",
          "type": "uint256"
        },
        {
          "internalType": "bytes",
          "name": "",
          "type": "bytes"
        }
      ],
      "name": "onERC721Received",
      "outputs": [
        {
          "internalType": "bytes4",
          "name": "",
          "type": "bytes4"
        }
      ],
      "stateMutability": "nonpayable",
      "type": "function"
    },
    {
      "inputs": [],
      "name": "stake",
      "outputs": [],
      "stateMutability": "nonpayable",
      "type": "function"
    },
    {
      "inputs": [],
      "name": "terminateLoan",
      "outputs": [],
      "stateMutability": "payable",
      "type": "function"
    }
  ],
  "bytecode": "0x60806040523480156200001157600080fd5b50604051620015d0380380620015d083398181016040528101906200003791906200018a565b735fbdb2315678afecb367f032d93f642f64180aa36000806101000a81548173ffffffffffffffffffffffffffffffffffffffff021916908373ffffffffffffffffffffffffffffffffffffffff16021790555082600160006101000a81548173ffffffffffffffffffffffffffffffffffffffff021916908373ffffffffffffffffffffffffffffffffffffffff16021790555081600281905550806003819055506000600460006101000a81548160ff0219169083600481111562000127577f4e487b7100000000000000000000000000000000000000000000000000000000600052602160045260246000fd5b02179055507fffffffffffffffffffffffffffffffffffffffffffffffffffffffffffffffff60058190555050505062000252565b6000815190506200016d816200021e565b92915050565b600081519050620001848162000238565b92915050565b600080600060608486031215620001a057600080fd5b6000620001b0868287016200015c565b9350506020620001c38682870162000173565b9250506040620001d68682870162000173565b9150509250925092565b6000620001ed82620001f4565b9050919050565b600073ffffffffffffffffffffffffffffffffffffffff82169050919050565b6000819050919050565b6200022981620001e0565b81146200023557600080fd5b50565b620002438162000214565b81146200024f57600080fd5b50565b61136e80620002626000396000f3fe6080604052600436106100705760003560e01c8063722713f71161004e578063722713f7146100e5578063bf5e673414610110578063c6e1c7c914610127578063ff4068e21461015257610070565b8063150b7a02146100755780633a4b66f1146100b2578063454a2ab3146100c9575b600080fd5b34801561008157600080fd5b5061009c60048036038101906100979190610c27565b61015c565b6040516100a99190610e7e565b60405180910390f35b3480156100be57600080fd5b506100c7610171565b005b6100e360048036038101906100de9190610ca7565b6102b6565b005b3480156100f157600080fd5b506100fa610479565b6040516101079190610f94565b60405180910390f35b34801561011c57600080fd5b50610125610481565b005b34801561013357600080fd5b5061013c610714565b6040516101499190610e99565b60405180910390f35b61015a610738565b005b600063150b7a0260e01b905095945050505050565b600160009054906101000a900473ffffffffffffffffffffffffffffffffffffffff1673ffffffffffffffffffffffffffffffffffffffff163373ffffffffffffffffffffffffffffffffffffffff1614610201576040517f08c379a00000000000000000000000000000000000000000000000000000000081526004016101f890610f34565b60405180910390fd5b60008054906101000a900473ffffffffffffffffffffffffffffffffffffffff1673ffffffffffffffffffffffffffffffffffffffff166342842e0e600160009054906101000a900473ffffffffffffffffffffffffffffffffffffffff16306003546040518463ffffffff1660e01b815260040161028293929190610e10565b600060405180830381600087803b15801561029c57600080fd5b505af11580156102b0573d6000803e3d6000fd5b50505050565b60025434146102fa576040517f08c379a00000000000000000000000000000000000000000000000000000000081526004016102f190610f14565b60405180910390fd5b600554811061033e576040517f08c379a000000000000000000000000000000000000000000000000000000000815260040161033590610f54565b60405180910390fd5b60006004811115610378577f4e487b7100000000000000000000000000000000000000000000000000000000600052602160045260246000fd5b600460009054906101000a900460ff1660048111156103c0577f4e487b7100000000000000000000000000000000000000000000000000000000600052602160045260246000fd5b14610400576040517f08c379a00000000000000000000000000000000000000000000000000000000081526004016103f790610f74565b60405180910390fd5b61042e600460019054906101000a900473ffffffffffffffffffffffffffffffffffffffff16600254610b12565b33600460016101000a81548173ffffffffffffffffffffffffffffffffffffffff021916908373ffffffffffffffffffffffffffffffffffffffff1602179055508060058190555050565b600047905090565b600160009054906101000a900473ffffffffffffffffffffffffffffffffffffffff1673ffffffffffffffffffffffffffffffffffffffff163373ffffffffffffffffffffffffffffffffffffffff1614610511576040517f08c379a000000000000000000000000000000000000000000000000000000000815260040161050890610ef4565b60405180910390fd5b600660009054906101000a900473ffffffffffffffffffffffffffffffffffffffff1673ffffffffffffffffffffffffffffffffffffffff16600460019054906101000a900473ffffffffffffffffffffffffffffffffffffffff1673ffffffffffffffffffffffffffffffffffffffff161415610692576002600460006101000a81548160ff021916908360048111156105d5577f4e487b7100000000000000000000000000000000000000000000000000000000600052602160045260246000fd5b021790555060008054906101000a900473ffffffffffffffffffffffffffffffffffffffff1673ffffffffffffffffffffffffffffffffffffffff166342842e0e30600160009054906101000a900473ffffffffffffffffffffffffffffffffffffffff166003546040518463ffffffff1660e01b815260040161065b93929190610e47565b600060405180830381600087803b15801561067557600080fd5b505af1158015610689573d6000803e3d6000fd5b50505050610712565b6001600460006101000a81548160ff021916908360048111156106de577f4e487b7100000000000000000000000000000000000000000000000000000000600052602160045260246000fd5b0217905550610711600160009054906101000a900473ffffffffffffffffffffffffffffffffffffffff16600254610b12565b5b565b60008054906101000a900473ffffffffffffffffffffffffffffffffffffffff1681565b600460019054906101000a900473ffffffffffffffffffffffffffffffffffffffff1673ffffffffffffffffffffffffffffffffffffffff163373ffffffffffffffffffffffffffffffffffffffff1614806107e15750600160009054906101000a900473ffffffffffffffffffffffffffffffffffffffff1673ffffffffffffffffffffffffffffffffffffffff163373ffffffffffffffffffffffffffffffffffffffff16145b610820576040517f08c379a000000000000000000000000000000000000000000000000000000000815260040161081790610eb4565b60405180910390fd5b600160009054906101000a900473ffffffffffffffffffffffffffffffffffffffff1673ffffffffffffffffffffffffffffffffffffffff163373ffffffffffffffffffffffffffffffffffffffff161415610a0c576005546002546108869190610fc0565b3410156108c8576040517f08c379a00000000000000000000000000000000000000000000000000000000081526004016108bf90610ed4565b60405180910390fd5b610903600460019054906101000a900473ffffffffffffffffffffffffffffffffffffffff166005546002546108fe9190610fc0565b610b12565b60008054906101000a900473ffffffffffffffffffffffffffffffffffffffff1673ffffffffffffffffffffffffffffffffffffffff166342842e0e30600160009054906101000a900473ffffffffffffffffffffffffffffffffffffffff166003546040518463ffffffff1660e01b815260040161098493929190610e47565b600060405180830381600087803b15801561099e57600080fd5b505af11580156109b2573d6000803e3d6000fd5b505050506003600460006101000a81548160ff02191690836004811115610a02577f4e487b7100000000000000000000000000000000000000000000000000000000600052602160045260246000fd5b0217905550610b10565b60008054906101000a900473ffffffffffffffffffffffffffffffffffffffff1673ffffffffffffffffffffffffffffffffffffffff166342842e0e30600460019054906101000a900473ffffffffffffffffffffffffffffffffffffffff166003546040518463ffffffff1660e01b8152600401610a8d93929190610e47565b600060405180830381600087803b158015610aa757600080fd5b505af1158015610abb573d6000803e3d6000fd5b5050505060048060006101000a81548160ff02191690836004811115610b0a577f4e487b7100000000000000000000000000000000000000000000000000000000600052602160045260246000fd5b02179055505b565b600660009054906101000a900473ffffffffffffffffffffffffffffffffffffffff1673ffffffffffffffffffffffffffffffffffffffff168273ffffffffffffffffffffffffffffffffffffffff1614610baf578173ffffffffffffffffffffffffffffffffffffffff166108fc829081150290604051600060405180830381858888f19350505050158015610bad573d6000803e3d6000fd5b505b5050565b600081359050610bc28161130a565b92915050565b60008083601f840112610bda57600080fd5b8235905067ffffffffffffffff811115610bf357600080fd5b602083019150836001820283011115610c0b57600080fd5b9250929050565b600081359050610c2181611321565b92915050565b600080600080600060808688031215610c3f57600080fd5b6000610c4d88828901610bb3565b9550506020610c5e88828901610bb3565b9450506040610c6f88828901610c12565b935050606086013567ffffffffffffffff811115610c8c57600080fd5b610c9888828901610bc8565b92509250509295509295909350565b600060208284031215610cb957600080fd5b6000610cc784828501610c12565b91505092915050565b610cd98161107e565b82525050565b610ce881611016565b82525050565b610cf781611028565b82525050565b610d0681611090565b82525050565b6000610d19603283610faf565b9150610d2482611107565b604082019050919050565b6000610d3c602c83610faf565b9150610d4782611156565b604082019050919050565b6000610d5f602a83610faf565b9150610d6a826111a5565b604082019050919050565b6000610d82602583610faf565b9150610d8d826111f4565b604082019050919050565b6000610da5602283610faf565b9150610db082611243565b604082019050919050565b6000610dc8601c83610faf565b9150610dd382611292565b602082019050919050565b6000610deb602c83610faf565b9150610df6826112bb565b604082019050919050565b610e0a81611074565b82525050565b6000606082019050610e256000830186610cd0565b610e326020830185610cdf565b610e3f6040830184610e01565b949350505050565b6000606082019050610e5c6000830186610cdf565b610e696020830185610cd0565b610e766040830184610e01565b949350505050565b6000602082019050610e936000830184610cee565b92915050565b6000602082019050610eae6000830184610cfd565b92915050565b60006020820190508181036000830152610ecd81610d0c565b9050919050565b60006020820190508181036000830152610eed81610d2f565b9050919050565b60006020820190508181036000830152610f0d81610d52565b9050919050565b60006020820190508181036000830152610f2d81610d75565b9050919050565b60006020820190508181036000830152610f4d81610d98565b9050919050565b60006020820190508181036000830152610f6d81610dbb565b9050919050565b60006020820190508181036000830152610f8d81610dde565b9050919050565b6000602082019050610fa96000830184610e01565b92915050565b600082825260208201905092915050565b6000610fcb82611074565b9150610fd683611074565b9250827fffffffffffffffffffffffffffffffffffffffffffffffffffffffffffffffff0382111561100b5761100a6110d8565b5b828201905092915050565b600061102182611054565b9050919050565b60007fffffffff0000000000000000000000000000000000000000000000000000000082169050919050565b600073ffffffffffffffffffffffffffffffffffffffff82169050919050565b6000819050919050565b6000611089826110b4565b9050919050565b600061109b826110a2565b9050919050565b60006110ad82611054565b9050919050565b60006110bf826110c6565b9050919050565b60006110d182611054565b9050919050565b7f4e487b7100000000000000000000000000000000000000000000000000000000600052601160045260246000fd5b7f4f6e6c7920426f72726f776572206f72204c656e6465722063616e205465726d60008201527f696e6174652074686520436f6e74726163740000000000000000000000000000602082015250565b7f4e65656420746f2072657475726e207072696e6369706c6520616d6f756e742060008201527f616e6420696e7465726573740000000000000000000000000000000000000000602082015250565b7f5465726d732063616e206f6e6c7920626520616363657074656420627920746860008201527f6520626f72726f77657200000000000000000000000000000000000000000000602082015250565b7f506c656173652073656e642074686520726967687420616d6f756e74206f662060008201527f4574686572000000000000000000000000000000000000000000000000000000602082015250565b7f4f6e6c7920426f72726f7765722043616e205374616b6520436f6c6c6174657260008201527f616c000000000000000000000000000000000000000000000000000000000000602082015250565b7f4e65656420746f2070726f766964652061206265747465722062696400000000600082015250565b7f546865206c6f616e206973206e6f742063757272656e746c792061636365707460008201527f696e6720616e7920626964730000000000000000000000000000000000000000602082015250565b61131381611016565b811461131e57600080fd5b50565b61132a81611074565b811461133557600080fd5b5056fea264697066735822122035899e64eb4029dd29ec9310fa3ca2032aef3d73447caf9b6bbb0bedb67ee85c64736f6c63430008010033",
  "linkReferences": {},
  "deployedLinkReferences": {}
}